{
  "contractName": "PatientDataManager",
  "abi": [
    {
      "anonymous": false,
      "inputs": [
        {
          "indexed": true,
          "internalType": "uint256",
          "name": "patientId",
          "type": "uint256"
        },
        {
          "indexed": true,
          "internalType": "address",
          "name": "user",
          "type": "address"
        }
      ],
      "name": "AccessGranted",
      "type": "event"
    },
    {
      "anonymous": false,
      "inputs": [
        {
          "indexed": true,
          "internalType": "uint256",
          "name": "patientId",
          "type": "uint256"
        },
        {
          "indexed": true,
          "internalType": "address",
          "name": "user",
          "type": "address"
        }
      ],
      "name": "AccessRevoked",
      "type": "event"
    },
    {
      "anonymous": false,
      "inputs": [
        {
          "indexed": true,
          "internalType": "uint256",
          "name": "patientId",
          "type": "uint256"
        },
        {
          "indexed": false,
          "internalType": "bytes32",
          "name": "dataHash",
          "type": "bytes32"
        },
        {
          "indexed": true,
          "internalType": "address",
          "name": "doctor",
          "type": "address"
        }
      ],
      "name": "PatientCreated",
      "type": "event"
    },
    {
      "anonymous": false,
      "inputs": [
        {
          "indexed": true,
          "internalType": "uint256",
          "name": "patientId",
          "type": "uint256"
        },
        {
          "indexed": false,
          "internalType": "bytes32",
          "name": "newDataHash",
          "type": "bytes32"
        }
      ],
      "name": "PatientDataUpdated",
      "type": "event"
    },
    {
      "constant": true,
      "inputs": [],
      "name": "patientCount",
      "outputs": [
        {
          "internalType": "uint256",
          "name": "",
          "type": "uint256"
        }
      ],
      "payable": false,
      "stateMutability": "view",
      "type": "function"
    },
    {
      "constant": true,
      "inputs": [
        {
          "internalType": "uint256",
          "name": "",
          "type": "uint256"
        }
      ],
      "name": "patients",
      "outputs": [
        {
          "internalType": "uint256",
          "name": "id",
          "type": "uint256"
        },
        {
          "internalType": "bytes32",
          "name": "dataHash",
          "type": "bytes32"
        },
        {
          "internalType": "address",
          "name": "doctor",
          "type": "address"
        }
      ],
      "payable": false,
      "stateMutability": "view",
      "type": "function"
    },
    {
      "constant": false,
      "inputs": [
        {
          "internalType": "bytes32",
          "name": "_dataHash",
          "type": "bytes32"
        }
      ],
      "name": "createPatient",
      "outputs": [],
      "payable": false,
      "stateMutability": "nonpayable",
      "type": "function"
    },
    {
      "constant": false,
      "inputs": [
        {
          "internalType": "uint256",
          "name": "_patientId",
          "type": "uint256"
        },
        {
          "internalType": "bytes32",
          "name": "_newDataHash",
          "type": "bytes32"
        }
      ],
      "name": "updatePatientData",
      "outputs": [],
      "payable": false,
      "stateMutability": "nonpayable",
      "type": "function"
    },
    {
      "constant": false,
      "inputs": [
        {
          "internalType": "uint256",
          "name": "_patientId",
          "type": "uint256"
        },
        {
          "internalType": "address",
          "name": "_user",
          "type": "address"
        }
      ],
      "name": "grantAccess",
      "outputs": [],
      "payable": false,
      "stateMutability": "nonpayable",
      "type": "function"
    },
    {
      "constant": false,
      "inputs": [
        {
          "internalType": "uint256",
          "name": "_patientId",
          "type": "uint256"
        },
        {
          "internalType": "address",
          "name": "_user",
          "type": "address"
        }
      ],
      "name": "revokeAccess",
      "outputs": [],
      "payable": false,
      "stateMutability": "nonpayable",
      "type": "function"
    },
    {
      "constant": true,
      "inputs": [
        {
          "internalType": "uint256",
          "name": "_patientId",
          "type": "uint256"
        },
        {
          "internalType": "address",
          "name": "_user",
          "type": "address"
        }
      ],
      "name": "isAuthorized",
      "outputs": [
        {
          "internalType": "bool",
          "name": "",
          "type": "bool"
        }
      ],
      "payable": false,
      "stateMutability": "view",
      "type": "function"
    }
  ],
  "bytecode": "0x608060405234801561001057600080fd5b50610b25806100206000396000f3fe608060405234801561001057600080fd5b506004361061007d5760003560e01c80637f25d4001161005b5780637f25d4001461016457806393119a831461019c578063a0303c4114610218578063d9a5ec1b146102365761007d565b806327f8ab0614610082578063609c6d7f146100b057806365dd152c14610116575b600080fd5b6100ae6004803603602081101561009857600080fd5b8101908080359060200190929190505050610284565b005b6100fc600480360360408110156100c657600080fd5b8101908080359060200190929190803573ffffffffffffffffffffffffffffffffffffffff1690602001909291905050506103e2565b604051808215151515815260200191505060405180910390f35b6101626004803603604081101561012c57600080fd5b8101908080359060200190929190803573ffffffffffffffffffffffffffffffffffffffff169060200190929190505050610502565b005b61019a6004803603604081101561017a57600080fd5b810190808035906020019092919080359060200190929190505050610622565b005b6101c8600480360360208110156101b257600080fd5b81019080803590602001909291905050506106d7565b604051808481526020018381526020018273ffffffffffffffffffffffffffffffffffffffff1673ffffffffffffffffffffffffffffffffffffffff168152602001935050505060405180910390f35b610220610721565b6040518082815260200191505060405180910390f35b6102826004803603604081101561024c57600080fd5b8101908080359060200190929190803573ffffffffffffffffffffffffffffffffffffffff169060200190929190505050610727565b005b600160008154809291906001019190505550604051806080016040528060015481526020018281526020013373ffffffffffffffffffffffffffffffffffffffff16815260200160006040519080825280602002602001820160405280156102fb5781602001602082028038833980820191505090505b508152506000806001548152602001908152602001600020600082015181600001556020820151816001015560408201518160020160006101000a81548173ffffffffffffffffffffffffffffffffffffffff021916908373ffffffffffffffffffffffffffffffffffffffff160217905550606082015181600301908051906020019061038a9291906109a6565b509050503373ffffffffffffffffffffffffffffffffffffffff166001547fe60ad96de2dec76ef9609231d9b70731871f5ad0159ffc9ed3db68320b9cb42c836040518082815260200191505060405180910390a350565b60008060008085815260200190815260200160002090508060020160009054906101000a900473ffffffffffffffffffffffffffffffffffffffff1673ffffffffffffffffffffffffffffffffffffffff168373ffffffffffffffffffffffffffffffffffffffff16141561045b5760019150506104fc565b60008090505b81600301805490508110156104f5578373ffffffffffffffffffffffffffffffffffffffff1682600301828154811061049657fe5b9060005260206000200160009054906101000a900473ffffffffffffffffffffffffffffffffffffffff1673ffffffffffffffffffffffffffffffffffffffff1614156104e8576001925050506104fc565b8080600101915050610461565b5060009150505b92915050565b61050c82336103e2565b610561576040517f08c379a0000000000000000000000000000000000000000000000000000000008152600401808060200182810382526027815260200180610a746027913960400191505060405180910390fd5b6000808381526020019081526020016000206003018190806001815401808255809150509060018203906000526020600020016000909192909190916101000a81548173ffffffffffffffffffffffffffffffffffffffff021916908373ffffffffffffffffffffffffffffffffffffffff160217905550508073ffffffffffffffffffffffffffffffffffffffff16827f3c3a9147a1fc73dd51a32f4d10c43d457e8cb826eb6f35cac6349eb965ba82b460405160405180910390a35050565b61062c82336103e2565b610681576040517f08c379a000000000000000000000000000000000000000000000000000000000815260040180806020018281038252602e815260200180610a9b602e913960400191505060405180910390fd5b8060008084815260200190815260200160002060010181905550817f0aaba64b96c382aeb60d8fed35440e559aa12e7822b87b1b5198b7f1521e3302826040518082815260200191505060405180910390a25050565b60006020528060005260406000206000915090508060000154908060010154908060020160009054906101000a900473ffffffffffffffffffffffffffffffffffffffff16905083565b60015481565b61073182336103e2565b610786576040517f08c379a0000000000000000000000000000000000000000000000000000000008152600401808060200182810382526028815260200180610ac96028913960400191505060405180910390fd5b60008090505b600080848152602001908152602001600020600301805490508110156109a1578173ffffffffffffffffffffffffffffffffffffffff1660008085815260200190815260200160002060030182815481106107e357fe5b9060005260206000200160009054906101000a900473ffffffffffffffffffffffffffffffffffffffff1673ffffffffffffffffffffffffffffffffffffffff16141561099457600080848152602001908152602001600020600301600160008086815260200190815260200160002060030180549050038154811061086557fe5b9060005260206000200160009054906101000a900473ffffffffffffffffffffffffffffffffffffffff1660008085815260200190815260200160002060030182815481106108b057fe5b9060005260206000200160006101000a81548173ffffffffffffffffffffffffffffffffffffffff021916908373ffffffffffffffffffffffffffffffffffffffff16021790555060008084815260200190815260200160002060030180548061091657fe5b6001900381819060005260206000200160006101000a81549073ffffffffffffffffffffffffffffffffffffffff021916905590558173ffffffffffffffffffffffffffffffffffffffff16837f125883b94692baebecad9f111ed97ffa626523bbbadc6b0ef85ee1b56b9e52d560405160405180910390a36109a1565b808060010191505061078c565b505050565b828054828255906000526020600020908101928215610a1f579160200282015b82811115610a1e5782518260006101000a81548173ffffffffffffffffffffffffffffffffffffffff021916908373ffffffffffffffffffffffffffffffffffffffff160217905550916020019190600101906109c6565b5b509050610a2c9190610a30565b5090565b610a7091905b80821115610a6c57600081816101000a81549073ffffffffffffffffffffffffffffffffffffffff021916905550600101610a36565b5090565b9056fe4f6e6c7920617574686f72697a65642075736572732063616e206772616e74206163636573732e4f6e6c7920617574686f72697a65642075736572732063616e207570646174652070617469656e7420646174612e4f6e6c7920617574686f72697a65642075736572732063616e207265766f6b65206163636573732ea265627a7a72315820b980b0826a20c02a17151c9a441b58832892800ff9147b0888861ca477d76d9264736f6c63430005100032",
  "source": "pragma solidity ^0.5.0;\n\ncontract PatientDataManager {\n    struct Patient {\n        uint256 id;\n        bytes32 dataHash;\n        address doctor;\n        address[] authorizedUsers;\n    }\n\n    mapping(uint256 => Patient) public patients;\n    uint256 public patientCount;\n\n    event PatientCreated(uint256 indexed patientId, bytes32 dataHash, address indexed doctor);\n    event PatientDataUpdated(uint256 indexed patientId, bytes32 newDataHash);\n    event AccessGranted(uint256 indexed patientId, address indexed user);\n    event AccessRevoked(uint256 indexed patientId, address indexed user);\n\n    function createPatient(bytes32 _dataHash) external {\n        patientCount++;\n        patients[patientCount] = Patient(patientCount, _dataHash, msg.sender, new address[](0));\n        emit PatientCreated(patientCount, _dataHash, msg.sender);\n    }\n\n    function updatePatientData(uint256 _patientId, bytes32 _newDataHash) external {\n        require(isAuthorized(_patientId, msg.sender), \"Only authorized users can update patient data.\");\n        patients[_patientId].dataHash = _newDataHash;\n        emit PatientDataUpdated(_patientId, _newDataHash);\n    }\n\n    function grantAccess(uint256 _patientId, address _user) external {\n        require(isAuthorized(_patientId, msg.sender), \"Only authorized users can grant access.\");\n        patients[_patientId].authorizedUsers.push(_user);\n        emit AccessGranted(_patientId, _user);\n    }\n\n    function revokeAccess(uint256 _patientId, address _user) external {\n        require(isAuthorized(_patientId, msg.sender), \"Only authorized users can revoke access.\");\n        for (uint256 i = 0; i < patients[_patientId].authorizedUsers.length; i++) {\n            if (patients[_patientId].authorizedUsers[i] == _user) {\n                patients[_patientId].authorizedUsers[i] = patients[_patientId].authorizedUsers[patients[_patientId].authorizedUsers.length - 1];\n                patients[_patientId].authorizedUsers.pop();\n                emit AccessRevoked(_patientId, _user);\n                break;\n            }\n        }\n    }\n\n    function isAuthorized(uint256 _patientId, address _user) public view returns (bool) {\n        Patient storage patient = patients[_patientId];\n        if (_user == patient.doctor) {\n            return true;\n        }\n        for (uint256 i = 0; i < patient.authorizedUsers.length; i++) {\n            if (patient.authorizedUsers[i] == _user) {\n                return true;\n            }\n        }\n        return false;\n    }\n}",
  "sourcePath": "/Users/bradhuang/oompa/blockchain/contracts/PatientDataManager.sol",
  "compiler": {
    "name": "solc",
    "version": "0.5.16+commit.9c3226ce.Emscripten.clang"
  },
  "schemaVersion": "3.4.16",
  "updatedAt": "2024-03-09T22:00:26.681Z",
  "networkType": "ethereum",
  "devdoc": {
    "methods": {}
  },
  "userdoc": {
    "methods": {}
  }
}